:100000000C94BF1D0C94F01D0C94F01D0C94F01D6D
:100010000C94F01D0C94F01D0C94F01D0C94F01D2C
:100020000C94F01D0C94F01D0C94F01D0C94F01D1C
:100030000C94F01D0C94F01D0C94F01D0C94F01D0C
:100040000C94F01D0C94F01D0C94F01D0C94F01DFC
:100050000C94F01D0C94F01D0C94F01D0C94C02415
:100060000C94F01D0C94E9220C94C0220C94F01D09
:100070000C94F01D0C94F01D0C94F01D0C94F01DCC
:100080000C94F01D0C94F01D0C94F01D0C94F01DBC
:100090000C94F01D0C94F01D0C94F01D0C948E2902
:1000A0000C94F01D0C94F01D0C94F01D0C94F01D9C
:1000B0000C94F01D0C94F01D0C94F01D0C94F01D8C
:1000C0000C94F01D0C94F01D0C94F01D0C94F01D7C
:1000D0000C94F01D0C94F01D0C94F01D0C94F01D6C
:1000E0000C94F01D4E23512340234423482388239E
:1000F000552359235F23632367236D2371237523BE
:1001000088237B237F23832300000000000000005E
:1001100000000000000000000000000000000000DF
:1001200000000000000000000000000000000000CF
:1001300000000000000000000000000000000000BF
:1001400000000000000000000000000000000000AF
:10015000000000000000000000000000000000009F
:1001600000000000000000000000001C0000000073
:100170000000003E000000000000007E02000000C1
:10018000000000FF0F000000000001FF1F00000042
:10019000000007FF1F80000000001FFF3FC000009D
:1001A00078007FFFBFC00000FF87FFFF9FE00000D7
:1001B000FFFFFF079FF00000FFFFFE039FF8000016
:1001C000FFFFFC07DFFC00007FFFF807C1FE000017
:1001D0007F8FF81FC07F80007E03F87FC03FE00064
:1001E0007C01FFFFC03FFC003C01FFFFC81FFFFE7A
:1001F0003C03FFFFCC1FFFFF3FFFFFFFCE3FFFFF92
:100200001FFFFFFFCFFFFFFF1FFFFFFFCFFF87FE97
:100210001FFFFFFFCFFF01FE0FFFFFFFCFFF00FC1F
:100220000FFFFFF7CFFF00FC07FFFFE7CFFFC0F88E
:1002300007FFFF879FFFF8F803FFFE0F9FFFFFF008
:1002400003F3F01F87FFFFE001F8003F01FFFFE02D
:1002500000FC00FF007FFFC0007F8FFE781FFF8043
:10026000003FFFFC7E0FFF00001FFFF8FF0FFF00A5
:10027000000FFFF0FFC7FE000003FFE1FFE7F800FB
:100280000000FF81FFE3F80000000001FFF3E00041
:1002900000000000FFFFC000000000007FFF000022
:1002A000000000001FFC0000000000000000000033
:1002B000000000000000000000000000000000003E
:1002C000000000000000000000000000000000002E
:1002D000000000000000000000000000000000001E
:1002E000000000000000000000000000000000000E
:1002F00000000000000000000000000000000000FE
:10030000000000000000000000000000000060008D
:1003100000000000000078000000000003FFF00073
:10032000000000001FFFF000000000007FFFFC0045
:1003300000000001FFFFFE0000000003FFFFFF8040
:1003400000000007FFFFFFC00000000FFFFFFFE0FD
:100350000000001FFFFFFFE00000003FFFFFFFF075
:100360000000003FFFFFFFF80000007FFFFFFFF8E5
:100370000000007FFFFFFFFC000000FFFFFFFFFC0D
:10038000000000FFFFFFFFFE000001FFFFFFFFFE78
:10039000000000FFFFFFFFFE0004000FFFFFFFFF54
:1003A00000060801FFFFFFFF010E18003FFFFFFFDF
:1003B00001CF70001FFFFFFF01FFF000007FFFFF74
:1003C00001FFF000007FFFFF01FFF0000079FFFF59
:1003D0003FC07F8000F0FFFF1F803F0000F07FFEE6
:1003E0000F001F0001E007FE0E000E0001E000FEFE
:1003F0000E000F0001E0003E3E0007C003C0000CED
:10040000FE0007E003C000003E000F8003C00000B4
:100410000E000E00078000000F000E000780000095
:100420000F001F00078000001F803F000F0000002A
:100430003FE07F800F00000001FFF0001E00000081
:1004400001FFF0001E00000001FFF0001E00000090
:1004500001CF30003C000000010E18003C000000FD
:10046000000600003C0000000004000078000000CE
:1004700000000000780000000000001FF8000000ED
:10048000000007FFFFE0000000007FFFFFFE00000C
:100490000003FFFFFFFFC000001FFFFFFFFFF00092
:1004A000007FFFFFFFFFFE0001FFFFFFFFFFFF8058
:1004B00003FF003FFC01FFC001FC000FF0003F8084
:1004C00000F80003C0001E0080000C000070000354
:1004D000F8007FC003FE001FFC01FFE00FFF803F1C
:1004E000FF03FFF81FFFC0FF3FFFE1FFFF87FFFC97
:1004F0000FFF807FFE01FFF007FF001FF800FFC025
:1005000001FC0007E0003F0000000C07C0000000F5
:10051000000015DFE0000000000017703C00000044
:100520000000F2000F0000000000B0000180000099
:100530000000800000C000000000800000400000BB
:100540000000C000006000000003800000200000E8
:10055000000600080030000000040018801C0000A5
:1005600000040018C60C000000040039C606000094
:10057000000C00396E0200000018002B3BC3000085
:100580000010006F01C30000001000CE0043000007
:10059000001004800043000000100F0000730000F2
:1005A00000100800001300000010180000330000C5
:1005B00000301000003200000060E000079F0000E3
:1005C000006040000CC08000004041F00804800042
:1005D000004023B00004800000602200000380007F
:1005E000003F2603C00700000008B00620040000FA
:1005F000000AA004300400000011600C100C000080
:10060000000A000C08080000000C000C0E18000086
:100610000007C00707D8000000004007833800002B
:100620000000400D018C00000000E01B88C60000A7
:100630000003B032C4630000000618648239C000B1
:10064000000C0FC9810CF00000180393D1047C004A
:100650000030012250BC660000600604D0786300C0
:1006600000C0040890284100008038018827C1801C
:100670000180C80308230080010198070F7000C0A3
:100680000303101D0FFC20C0030618710847C0406B
:10069000020418C118400040020C0FE1184000404D
:1006A00002080761F040004006080060406000401A
:1006B000060800600060004002000040002000C00A
:1006C000020000C003B00080030000C084F8018075
:1006D000030000F96C0C0700018001871807FC007B
:1006E00001800300001DF00000C00600007800003B
:1006F00000701C0003E00000003FFFFFFF0000004F
:10070000000FE1FFF000000000000000000000000A
:10071000000000000007380000000000000FFC008F
:1007200000000000001FFC0000000000001FFE0091
:1007300000000000001FFE0000000000001FFE007F
:1007400000000000013FFE70000000001FFF3FFCA2
:10075000000000003FFFFFFE000000003FE739FF00
:10076000000000003FEF35FE000000001FF927FEEB
:10077000000000001FF803FE000000001FFC07FE41
:10078000000000003FA0C17F000000003FA0C17E2C
:10079000000000001FFC0FFE0000000007F807F833
:1007A0000000306001F923E0000078F001F937E043
:1007B0000000FFF803E73DE00001FFFC03F7FFF056
:1007C0000001FFFE03FF3FF00003FFFE07FFFFF8FD
:1007D0000003FFFF03FFFFF00007FEFF03FFFFF032
:1007E0000007FCFF007FFF800007FCFF003F3F0089
:1007F00003E7FFFFBF0E1F001FFFFFFF7F8000000A
:100800003FE3FCFE3FE000007FF3FCFF7FF00000D1
:10081000FFFFFCFFFFF80000FFFE7CF3FFF8000085
:10082000FFFE3CE3FFF800007FFF1CC7FFE0000075
:100830003FFF8C8FFFE000003FFFC01FFFE0000084
:100840007FFFE03FFFE00000FF30020063F80000A0
:10085000FF30030063F800007F30020063F80000FF
:100860007FFFE03FFFF000003FFFC01FFFE0000000
:100870001FFF8C8FFFC0000007FF18C7FF0000009C
:1008800001FE38E3FC00000001FE7CF3FC000000E8
:1008900001FFFCFFFE00000003F3FCFF7E000000F0
:1008A00003E3F8FE3F00000007F7FFFF7F000000B2
:1008B00007FFFFFFFF00000007FFFCFFFF00000035
:1008C00007FFFCFFFF00000003FFFFFFFF00000029
:1008D00003FFFFFFFE00000003FFFFFFFE0000001C
:1008E000001FFFFFC0000000001FFCFFC000000051
:1008F000000FF07FC0000000000FC03FC0000000EC
:100900000002000300000000000000000000001EC4
:1009100000000000000001FF0000000000003FFF99
:10092000000000000007FFFF00000000007FFFFF45
:100930000000000007FFFFFF00000000FFFFFFFFB7
:100940000000000FFFFFFFFF000001FFFFFFFFFFA0
:1009500000001FFFFFFFFFFF00003FFFFFFFFFFF43
:1009600000003FFFFFFFFFFF00003FFFFFFFFFFF13
:1009700000003FFFFFFFFFFF00003FFFFFFFFFFF03
:1009800000003FFFFFFFFFFF00003FFFFFFFFFFFF3
:1009900000003FFFFFFFFFFF00003FFFFFFFFFFFE3
:1009A00000003FFFFFFFFF9F00003FFFFFFFF01F22
:1009B00000003FFFFFFF001F00003FFFFFE0001FA0
:1009C00000003FFFFE00001F00003FFFC000001FAF
:1009D00000003FFC0000001F00003F800000001FDF
:1009E00000003E000000001F00003E000000001F4D
:1009F00000003E000000001F00003E000000001F3D
:100A000000003E000000001F00003E000000001F2C
:100A100000003E000000001F00003E000000001F1C
:100A200000003E000000001F00003E000000001F0C
:100A300000003E000000FFDF00003E000007FFFF57
:100A400000003E00000FFFFF00003E00001FFFFF00
:100A500000003E00003FFFFF00003E00003FFFFFA0
:100A600000003E00003FFFFF00003E00007FFFFF50
:100A700000003E00007FFFFF01FF3E00007FFFFF00
:100A800007FFFE00007FFFFF1FFFFE00003FFFFF8C
:100A90003FFFFE00003FFFFE7FFFFE00001FFFFC48
:100AA0007FFFFE00000FFFF8FFFFFE000007FFF0D2
:100AB000FFFFFE000003FFE0FFFFFE0000007F00DD
:100AC000FFFFFE0000000000FFFFFE00000000002E
:100AD000FFFFFC00000000007FFFFC0000000000A2
:100AE0003FFFF800000000003FFFF00000000000A2
:100AF0001FFFE0000000000007FFC0000000000032
:100B000001FE0000000000000000000001F00000F5
:100B10000000000003F8000000000003F7FC0000E4
:100B20000000000FFFFE00000000000FFFFE0000AD
:100B30000000000FFFFE00000000001FFFFE00008D
:100B400000000001FFFE000000000000FFFC0000AC
:100B50000000000C3BF800000000001E11F0000037
:100B60000000003F800000000000003FC0000000C7
:100B70000000011FF01F800000000187FFFFC00080
:100B8000000003C3FFFFC000000003E0FFFFE00020
:100B9000000007F87FFFE000000007FE1FE7E0000D
:100BA00000000FFF001FE00000000FFF8001E000C9
:100BB00000001FF7E400E00000001FFBFFF8E0006A
:100BC00000003FF9FFFCE00000003FFCFFFC60007C
:100BD00000003FFE7FFCE00000007FFE0030E000F0
:100BE00000007FFF0001F0000000FFFF9C03F00009
:100BF0000000FFFF9FFFF0000001FFFF87FFF000F4
:100C00000001FFFF83FFF0000003FFFF03FFF00080
:100C10000003FFFF03FFF0000003FFFF03FFF000EE
:100C20000007FFFF03FFF0000007FFFF07F3F000DE
:100C3000000FFFFF07F3F000000FFFFF0FE3F000CE
:100C4000000FFFFF0FE3F0000001FFFF0FC3F000F4
:100C500000001FFF1FC3F000000001FF1F83F00012
:100C60000001C01F3F83F0000001F0003F03F000CF
:100C70000001F3807F03F0000001F3F07F03F00038
:100C80000001F3F03F03F0000001F3F03F03F00038
:100C90000001F3F03F03F0000001F3F03F03F00028
:100CA0000001F3F03F83F0000001F3F03F83F00018
:100CB0000001F3F01F83F0000001F3F01F83F00048
:100CC0000001F3F01F83F0000001F3F01F83F00038
:100CD0000001F3F01F83F0000001F3F00FC3F000F8
:100CE0000001F3F00FC3F0000001F3F00FC3F000B8
:100CF0000001F3F00FC3F0000000FBF00F81F000E3
:100D0000000071E00300E0000000000000000000AF
:100D100000000000000000000000000000000000D3
:100D200000000000000000000000000000000000C3
:100D300000000000000000000000000000000000B3
:100D400000000000000000000000000000000000A3
:100D50000000000000000000000000000000000093
:100D6000000000FE00000000000003FF8000000003
:100D7000000007FFC000000000000FFFE0000000BF
:100D800000003F01F000000000007E00F8000000BD
:100D90000000FC007C0000000001F8003E000000A4
:100DA0007C07E00FDF6FFBA0FF8FC03FFFFFFFFC62
:100DB000FFDF803FFFFFFFFEFFFF001FFFFFFFFE83
:100DC000F1FC00000000001FF1F800000000000F1F
:100DD000F1F000000000000FF1E000000000001F33
:100DE000F1E000003FFFFFFEF1E000003FFFFFFEEB
:100DF000F1E000003FFFFFFCF1E000001FFFFFF00B
:100E0000F1E0000000078000F1E000000007800032
:100E1000F1E0000000078000F1E000001FFF00008B
:100E2000F1E000003FFF0000F1E000003FFE0000A5
:100E3000F1E000003FFC0000F1E0000000F80000DD
:100E4000F1E0000000780000F1E000000078000010
:100E5000F1E0000000F80000F1E000003FF00000C9
:100E6000F1E000003FF00000F1E000003FE0000092
:100E7000F1E000001F800000F1F00000078000009A
:100E8000F1FE000007800000F1FFE0000780000095
:100E9000FFFFFFFFFF800000FFCFFFFFFF0000000C
:100EA000FFC1FFFFFF000000FF000FFFFC0000007C
:100EB0000000000000000000000000000000000032
:100EC0000000000000000000000000000000000022
:100ED0000000000000000000000000000000000012
:100EE0000000000000000000000000000000000002
:100EF00000000000000000000000000000000000F2
:100F000000000000000000000000000000000000E1
:100F100000000000000000000010000000000000C1
:100F2000007000000006000000E00000001E00004D
:100F300001E00070001E000003E000F0000E000061
:100F400003E000F00008000003E000F000000000F3
:100F500003E000000000000003F0000000000000BB
:100F600003F000000000000003F800000000000093
:100F700003FC00003800000001FF00007C0040007E
:100F800000FFF0003C00E000007FE0003800F000CF
:100F9000003FC0000001F000000000000003F80066
:100FA000000000000003FC00000000000007FC003F
:100FB00000000000000FFE0000000000000FFF0016
:100FC00000000180000FFF00000003800003FC0010
:100FD000000007C00007FE00000007C0000FFE0071
:100FE00000000FE0001FFF0000000FF0001FFF8057
:100FF00000001FF0003FFF8000003FF8007FFFC0AF
:1010000000003FFC007FFFE000007FFC00FFFFE0EE
:1010100000007FFE00FFFFE00000FFFE000FFE006B
:101020000001FFFF001FFF000001FFFF801FFF8086
:101030000003FFFF803FFF800007FFFFC07FFFC06E
:101040000007FFFFC07FFFE0000FFFFFE0FFFFE0B2
:10105000000FFFFFF07FFFF0001FFFFFF07FFFF8A2
:10106000003FFFFFF83FFFF8003FFFFFFC3FFFFCA2
:10107000007FFFFFFC1FFFFE00FFFFFFFE0FFFFED4
:1010800000FFFFFFFE0FFFFF01FFFBFFFF07FFFF5A
:1010900001FFFBDFFF83F80003FFF3DFFF83F800AE
:1010A00007FFF3CFFFC1F80007FFE7CFFFE1F8002C
:1010B0000FFFE3CFFFE0F8001FFFC3C7FFF078008A
:1010C0001FFFC3C7FFF078003FFF83C3FFF838005E
:1010D0003FFF83C3FFFC38007FFF03C1FFFC180004
:1010E000FFFF03C1FFFE1800FFFE03C0FFFE180054
:1010F0007FFE03C0FFFE180000000000000000009B
:1011000000000000000000000000000000000000DF
:1011100000000000000000000000000000000000CF
:10112000000000000000000040000000000000027D
:10113000E000000000000007E000000000000007E1
:10114000E000000000000007E000000000000007D1
:10115000E000000000000007F00000000000000FA9
:10116000F00000000000000FF00000000000000F81
:10117000F80000000000001FF80000000000001F41
:10118000F80000000000001FFC0000000000003F0D
:10119000FC0000000000003FFE00001FF000007F88
:1011A000FE0000FFFF00007FFF0003FFFFC000FF05
:1011B000FF8007FFFFE001FFFF800FFFFFF001FF4F
:1011C000FFC00FFFFFF003FFFFC01FFFFFF803FF8B
:1011D000FFE01FFFFFF807FFFFF03FFE7FFC0FFF60
:1011E000FFF83FF81FFC1FFFFFFC3FC003FC3FFF61
:1011F000FFFF3F8001FCFFFFFFFFFF0000FFFFFF3D
:10120000FFFFFF0000FFFFFFFFFFFF0000FFFFFFEA
:101210007FFFFE00007FFFFE7FFFFE00007FFFFEDE
:101220007FFFFE1FF87FFFFE7FFFFE3FFC7FFFFE7C
:101230003FFFFE1FF87FFFFC3FFFFE1FF07FFFFC1C
:101240003FFFFF0FF0FFFFFC1FFFFF0FF0FFFFF856
:101250001FFFFF87E1FFFFF80FFFFFFFFFFFFFF01A
:101260000FFFFFFFFFFFFFF007FFFFFFFFFFFFE0A4
:1012700003FFFFFFFFFFFFC003FFFFFFFFFFFFC0F4
:1012800001FFFFFFFFFFFF8000FFFFFFFFFFFF00E9
:10129000007FFFFFFFFFFE00003FFFFFFFFFFC009E
:1012A000001FFFFFFFFFF800000FFFFFFFFFF00030
:1012B0000007FFFFFFFFE0000001FFFFFFFF8000CE
:1012C0000000FFFFFFFF000000003FFFFFFC0000E9
:1012D00000000FFFFFF00000000000FFFF00000013
:1012E00000000007E0000000000000000000000017
:1012F00000000000000000000000000000000000EE
:10130000000000000000000007FFFFFFFFFFFFE0FC
:101310001FFFFFFFFFFFFFF83FFFFFFFFFFFFFFC87
:101320007E01E003800700FE7C00C0018003003ED8
:10133000F800C0018007001FF1FCCFF99FE73F8F45
:10134000E3FCCFF19FE33FCFE3FCCFF19FE33FCF3F
:10135000E7F8CFF01FE33FCFE3F8C7E007E33FCF65
:10136000E3FCC7C3C3E33FC7E3FCCF0FF0E33FCFCA
:10137000E3FCC01FF8033FCFE000807FFE010007C1
:10138000F0000FFFFFE0000FFFFE3FFC3FFC7FFF80
:10139000FFFC7FF01FFE7FFFF000FFF18FFE000FCC
:1013A000E000FFE3CFFF000FE3F8FFE3CFFF1FCF25
:1013B000E3F9FFE3CFFF1FCFE3F9FFF18FFF9FCFEB
:1013C000E7F9FFF01FFF9FCFE3F1FFFC3FFF8FCF57
:1013D000E3E3F0FFFFFFCFCFE3E3C07FFF87C7CF9B
:1013E000E7C7C63FFF01E3C7E10F8F3FFE11F1875B
:1013F000E00F9F3FFE78F00FF01F8F3FFE7CF00F55
:10140000FF9F8E3FFE78F1FFFF9FC07FFE38F1FF08
:10141000F00FE0FFFF01F00FE00FFFFFFF83F00F81
:10142000E3CFFFE3FFFFE3CFE3C7FF81FFFFE7CF9A
:10143000E3E3FF80FFFFC7CFE3F3FF1C7FFF8FC70E
:10144000E3F1FF3E7FFF1FCFE3F9FF3E7FFF1FCF9A
:10145000E3F9FF1C7FFF3FC7E3F9FF80FFFF3FC7B2
:10146000E000FFC1FFFF000FE000FFFFFFFF000FE4
:10147000F0007FFFFFFF000FFFFE7FFFFFFF3FFF3A
:10148000FFFE1FFFFFFF3FFFE00003FFFFFF000F16
:10149000E000C007F87F000FE3FCC003F03F3FCF40
:1014A000E7FCCFF3F11F3FC7E3FCC7F1E39F3FCF5A
:1014B000E3FCC7F9E39F3FCFE3FCC7F1E39F3FCFD6
:1014C000E3FCCFF9E39F3FCFF3FCCFF1E39F3FCFA6
:1014D000F1F8C7F9E79F3F8FF800C001E01F001E39
:1014E0007C00C000001F003E7FFFFFFC0F9F3FFC01
:1014F0003FFFFFFF7F9F3FFC1FFFFFFFFF8F3FF07E
:1015000007FFFFFFFFCE3FC000000000000000000B
:1015100000000000000000000000000000000000CB
:1015200000000000000000000000000000000000BB
:1015300000000000000000000000000003FF0004A5
:10154000020000000FFF8018070000001FFFE0F8F6
:10155000078000007FFFFBF80FC00000FFFFFFF0D7
:101560000FE00001FFFFFFF00FF00001FFFFFFF0B1
:101570000FF80003FFFFFFFF0FFC0003FFFFFFFE5C
:101580001FFF0003FFFFFFFC1FFFC007FFFFFFF867
:101590001FFFE007FFFFFFF81FFFF807FFFFFFF047
:1015A0000FFFFF07FFFFFFE00FFFFFFFFFFFFFC081
:1015B0000FFFFFFFFFFFFFC007FFFFFFFFFFFF80E1
:1015C0001FFFFFFFFFFFFF801FFFFFFFFFFFFF80E9
:1015D0001FFFFFFFFFFFFF801FFFFFFFFFFFFF80D9
:1015E0001FFFFFFFFFFFFF800FFFFFFFFFFFFF80D9
:1015F0000FFFFFFFFFFFFF800FFFFFFFFFFFFF80D9
:1016000007FFFFFFFFFFFF8007FFFFFFFFFFFF0058
:1016100003FFFFFFFFFFFF0001FFFFFFFFFFFF00D2
:1016200001FFFFFFFFFFFF0001FFFFFFFFFFFF00C4
:1016300001FFFFFFFFFFFE0000FFFFFFFFFFFE00B7
:1016400000FFFFFFFFFFFE00007FFFFFFFFFFC002A
:10165000003FFFFFFFFFFC00003FFFFFFFFFFC001C
:10166000001FFFFFFFFFF800000FFFFFFFFFF80064
:101670000003FFFFFFFFF0000003FFFFFFFFE0009C
:10168000001FFFFFFFFFC000007FFFFFFFFFC00044
:1016900007FFFFFFFFFF00003FFFFFFFFFFE00000F
:1016A000FFFFFFFFFFFC00003FFFFFFFFFF8000010
:1016B0000FFFFFFFFFF0000003FFFFFFFF800000B0
:1016C000007FFFFFFE000000001FFFFFF000000092
:1016D0000001FFFF8000000000000000000000008B
:1016E00000000000000000000000000000000000FA
:1016F00000000000000000000000000000000000EA
:101700000000000000000000000000000000000FCA
:10171000000000000000000F000000000000000FAB
:10172000000000000000001F000000000000001F7B
:10173000000000000000001F000000000000001F6B
:10174000000000000000003F000000000000003E1C
:10175000000000000000007C00000000000000F815
:1017600000000000000000F80000000000007FF012
:10177000000000000001FFE0000000000003FFC0C7
:101780000000000000007FC0000000003FF01FE0EC
:1017900000000000FFFE0FE000000003FFFF83F0E9
:1017A00000000007FFFFE1F00000000FFFFFF1F075
:1017B0000000000FFFFFF8F00000001F87FFFC6033
:1017C0000000001F07FFFE600000001F03FFFE0077
:1017D0000000003E03FFFF000000007E03FFFF004B
:1017E0000000007C07FFFF00000000FC07FFFF80F7
:1017F000000000F807FFFF80000001F80FFFFF80E6
:10180000000001F00FFFFF80000003E01FFFFF80DA
:10181000000007E03FFFFF80000007C03FFFFF80A0
:1018200000000F807FFFFF8000001F80FFFFFF0090
:1018300000003F01FFFFFF0000003E03FFFFFE002E
:1018400000007E07FFFFFE000000FC0FFFFFFC0012
:101850000001F81FFFFFF8000003F03FFFFFE0006A
:101860000003F07FFFFFC0000007E1FFFFFF000063
:10187000000FC3FFFFFE0000001F87FFFFF80000FE
:10188000003F0FFFFFF00000007F3FFFFFC00000A0
:1018900000FE7FFFFF00000001FDFFFFFE000000D3
:1018A00003FBFFFFF800000007FFFFFFE000000060
:1018B0000FFFFFFF800000001FFFFFFE0000000081
:1018C0003FFFFFF8000000007FFFFFE00000000086
:1018D000FFFFFF8000000000FFFFFF00000000008E
:1018E000FFFFFC0000000000FFFFE0000000000020
:1018F000FFFF8000000000007FFE000000000000ED
:101900000FF00000000000000000000000C0000018
:101910000000000001C000000000000001C0000045
:101920000000000003C000000000000003C0000031
:101930000000000007E000000000000007E00000D9
:10194000000000001FE00000000000003FF8000061
:10195000000000003FFE0000000000007FFE0000CD
:10196000000000007FFF0000000000007FFF8000FB
:10197000000000007FFFE000000000007FFFE000AB
:10198000000000007FFFE00000000000FFFFC0003B
:1019900000000001FFFF800000000003FFFE0000C8
:1019A00000000007FFF800000000000FFFF8000033
:1019B0000000000FFFF000000000001FFFF000001B
:1019C0000000003FFFF800000000007FFFF800006B
:1019D000000000FFFFF80000000001FFFFF800001A
:1019E000000001FFFFF80000000003FFFFF8000007
:1019F000000007FFFFF0000000000FFFFFF00000F5
:101A000000001FFFFFF0000000001FFFFFE00000CC
:101A100000003FFFFFC0000000007FFFFFC000008C
:101A200000007FFFFF8000000000FFFFFF8000003C
:101A30000000FFFFFFC000000000FFFFFFC000002C
:101A40000000FFFFFFC000000000FFFFFFC000001C
:101A50000001FFFFFFC000000001FFFFFFC000000A
:101A60000001FFFFFFC000000001FFFFFFC00000FA
:101A70000001FFFFFFC000000000FFFFFFC00000EB
:101A80000001FFFFFFC000000001FFFFF3E00000C6
:101A90000003FFFFF3E000000007FFFFE3E00000AA
:101AA0000007FFFFF1F80000000FBFFFFDFE000080
:101AB000000F9FFFFDFF0000000F0FFFFEFF000063
:101AC000000F03FFFEFF0000000F000000000000F9
:101AD000000F80000000000000078007C000000029
:101AE0000007C03FC00000000003F7FF80000000B7
:101AF0000001FFFC000000000000FFE0000000000B
:101B000000003F00000000000007FFFFFFFFE000B3
:101B1000003FFFFFFFFFFC00007FFFFFFFFFFE0015
:101B200001FFFFFFFFFFFF8003FFFFFFFFFFFFC07D
:101B300007FFFFFFFFFFFFE00FFFFFFFFFFFFFF0CB
:101B40001FFFFFFFFFFFFFF81FFFFFFFFFFFBFF8B3
:101B50003FFFFFFFFFFE07FC7FFFFFFFFFFC03FED1
:101B60007FFFFFFFFFF801FEFFFFFFFFFFF861FEB1
:101B7000FFFFFFFFFFF861FFFFFFFFFFFFF861FFBF
:101B8000FFFFFFC003F803FFFFFFFF0000FC03FFA0
:101B9000FFFFFE00007C07FFFFFFF803C01F1FFFD1
:101BA000FFFFF03FF80FFFFFFFFFE0FFFF07FFFF22
:101BB000FFFFC1FFFF83FFFFFFFFC3FFFFC3FFFF67
:101BC000FFFF87FFFFE1FFFFFFFF0FFFFFF0FFFFBA
:101BD000FFFF0FFFFFF0FFFFFFFE1FFFFFF87FFF7C
:101BE000FFFE1FFFFFF87FFFFFFE1FFFFFF87FFFD5
:101BF000FFFE1FFFFFF87FFFFFFE3FFFFFFC7FFFA1
:101C0000FFFE3FFFFFFC7FFFFFFE3FFFFFFC7FFF6C
:101C1000FFFE1FFFFFF87FFFFFFE1FFFFFF87FFFA4
:101C2000FFFE1FFFFFF87FFFFFFE1FFFFFF87FFF94
:101C3000FFFE1FFFFFF07FFFFFFF0FFFFFF0FFFF23
:101C4000FFFF0FFFFFF0FFFFFFFF87FFFFE1FFFF39
:101C5000FFFFC3FFFFC3FFFFFFFFC1FFFF83FFFFC6
:101C6000FFFFE0FFFE07FFFFFFFFF03FFC0FFFFF5E
:101C7000FFFFF803C01FFFFFFFFFFE00007FFFFF15
:101C8000FFFFFF0000FFFFFFFFFFFFC003FFFFFF9D
:101C9000FFFFFFFFFFFFFFFFFFFFFFFFFFFFFFFF54
:101CA0007FFFFFFFFFFFFFFE7FFFFFFFFFFFFFFE46
:101CB0007FFFFFFFFFFFFFFE3FFFFFFFFFFFFFFC78
:101CC0001FFFFFFFFFFFFFF81FFFFFFFFFFFFFF8F2
:101CD0000FFFFFFFFFFFFFF007FFFFFFFFFFFFE02A
:101CE00003FFFFFFFFFFFFC001FFFFFFFFFFFF80BC
:101CF000007FFFFFFFFFFE00003FFFFFFFFFFC0034
:101D00000007FFFFFFFFE0000000098001900000D6
:101D100000003980019C000000007980039E0000D3
:101D20000000F9C0039E00000000F9C0039F0000FE
:101D30000000F1C0039F00000000F3E00FCF00009F
:101D40000001F3F00FCF80000001E3F81FC780000F
:101D50000001E3FC3FC780000003E7FE7FE7C0000F
:101D60000003E7FFFFE7C0000003E7FFFFE7C00055
:101D70000003E7FE7FE7C000000023FE7FC40000F1
:101D8000000003FEFFC00000000003FFFFC00000D2
:101D9000000001FFFF800000000000FFFF000000C6
:101DA000000000FE7F0000000000007E7E000000BA
:101DB0000000007FFE0000000000007FFE00000029
:101DC0000000000000000000000000000000000013
:101DD000000000128E00000000000073C60000002A
:101DE000000000F3C7000000000000E3E70000006F
:101DF000000000E7E7000000000000E7E700000047
:101E0000000001E7E7800000000001E7E780000034
:101E1000000003E7E3C00000000003C7E3C00000C8
:101E2000000003CFF3C00000000007CFF3E0000084
:101E3000000007CFF3E0000000000FCFF3F0000038
:101E400000000FCFF3F0000000000F8FF1F800004A
:101E500000001F9FF1F8000000003F9FF9FC000008
:101E600000003F9FF9FC000000007F3FFCFE0000E7
:101E700000007F3FFCFE00000000FF3FFCFF000071
:101E80000000FF3FFCFF00000001FE3FFC7F8000E0
:101E90000003FE7FFE7FC0000003FC7FFE3FC0000A
:101EA0000007FC7FFE3FE000000FFCFFFF3FF0005B
:101EB000000FFCFFFF3FF000003FF8FFFF1FFC009A
:101EC000001FF9FFFF9FF8000003F1FFFF8FC00024
:101ED0000003F3FFFFCFC0000001F3FFFFCF80003E
:101EE0000000E3FFFFC70000000007FFFFE0000065
:101EF000000003FFFFC00000000001E7E7800000D2
:101F000000000003C000000000000000000000000E
:101F100000000000000000000000000000000000C1
:101F200000000000000000000000001FFC00000096
:101F3000000003FFFFE0000000001FFFFFF80000AB
:101F400000007FFFFFFF00000001FFFFFFFFC00058
:101F5000001FFE00007FF800007FF000000FFE0071
:101F6000007FC0000003FE0000FF000000007F8033
:101F700001FE000000003FC003F8000000001FE069
:101F80000FC00000000003F01F800000000001F8F7
:101F90001F800000000001F81F800000000000F812
:101FA0001F0000000000007C3C0000000000003E1C
:101FB0007C0000000000001E7C0000000000001EED
:101FC000780000000000001F780000000000001FE3
:101FD000780000000000000FF80000000000000F73
:101FE000F80000000000000F780000000000000F63
:101FF000780000000000001F780000000000001FB3
:102000007C0000000000001E3C0000000000003EBC
:102010003E0000000000007C1F0000000000007C6B
:102020001F000000000000F81F800000000001F801
:102030001F800000000001F807F00000000007F01A
:1020400003F8000000001FE001FE000000003FC098
:1020500001FE000000007F8000FF80000001FF0003
:10206000007FC0000007FE00000F800003FFF800A3
:10207000000F807FFFFFE000000F80FFFFFF800068
:10208000001F01FFFFFE0000001F07FFFFF0000020
:10209000003E1FC000000000007E7FC00000000066
:1020A000007FFF8000000000007FFE0000000000B5
:1020B00000FFFC000000000001FFF0000000000035
:1020C00007FF80000000000007FE00000000000085
:1020D00007F0000000000000030000000000000006
:1020E00000000000000000000000000000000000F0
:1020F00000000000000000000000000000000000E0
:1021000000000000000000000000000100000000CE
:1021100000000001800000000000000180000000BD
:102120000000000FC00000000000063FC0000000DB
:10213000001987FFE0000000003FC7FFE00000003B
:10214000003FC7FFE0000000003FC3FFE0000000C9
:10215000001F83FFE0000000001F83FFE00000007D
:10216000000601FFE0000000000001FFC0000000C9
:10217000000080FF800000000001803F8000000020
:1021800000038001C00000000003F801C00000004F
:102190000007FE41E00000000007FFC1E000000072
:1021A0000007FFC1F0000000000FFFC1F8000000B1
:1021B000000FFFC1F80000000007FFC3FC00000093
:1021C0000007FF83FC0000000007FF83FC00000005
:1021D0000003FF03FE0000000001FE03FE000000FC
:1021E0000003C007FF00000000038007FF0000009D
:1021F00000078007FF0000000007800FFF8000003D
:10220000000F800FFF800000000F800FFF80000094
:10221000001F800FFF800000001F801FFFC0000014
:10222000003FC01FFFC00000003FC03FFFC00000D4
:10223000007FC03FFFC00000007FC03FFFC0000024
:1022400000FFC03FFFC0000000FFE03FFF80000034
:1022500000FFE03FFF80000001FFE03FFF000000C3
:1022600001FFE03FFF00000001FFF03FFE00000023
:1022700003FFF03FF800000003FFF01FE000000044
:1022800003FFF807E000000003FFF801E000000092
:1022900003FFF801E000000003FFFC01E000000084
:1022A00003FFFC01E000000003FFFC01E060000010
:1022B00001FFFC01EFFE000001FFFC01FFFF000039
:1022C00000FFFC01FFFF878000FFFC07FF3FDF806E
:1022D000007FFC1FF807FF80001FFFFFFC03FF00CB
:1022E0000007FFFF3F87FC0000007FFE3FFFF0007C
:1022F00000001FF00FFFC0000000000007FF80007B
:102300000000000001FC000000000000001C00387C
:1023100000000000001E007800000000001F007890
:1023200000000000001B00D8000000000019FF980A
:1023300000C000000019FF9803F00000001800180A
:10234000033C000000180018038E0000001800185D
:1023500001E700000018001800F38000001C0018BE
:102360000039800000180018001CC0000018001878
:10237000000CC00000180018000CC0000018001865
:102380000006C000000C00300006C000000F007006
:10239000000CC000000F81F0000CC000001DC3B095
:1023A000000DC0000038FF30001D800000303C30C0
:1023B000001B8000007000180033000000E00018CF
:1023C0000037000000C000180066000003800018FD
:1023D000006E00000F80001800CC00007E00001886
:1023E00000DC0001F000001801D800078000001890
:1023F0000198001E0000001801B0007800000018CD
:10240000033000F000000230033003C0000006304B
:102410000370070003000E3006600E0003000C700E
:1024200006601C0003001C6006603800030018E012
:102430000CE07000030030C00CC0C00003007180CD
:102440000CC18000030061800CC300000300E300A6
:102450000CC700000300C3001CCE00000300C60030
:1024600018CC00000180CE0018D800000180CC00FC
:1024700018F0000200C07C0018F0000300C07800D3
:1024800018E000030060700018C0000300607000D6
:1024900018C0000301F0300018C0000307F030003E
:1024A00018C180033F1830000CC18006F8183000B6
:1024B0000CC3000FE01C18000C63000F001C180078
:1024C0000663003C001E180007F60070001E18008E
:1024D00003FE01E0001B0C00001E1FFF001B0C0090
:1024E000000E0FFF80198F0000060001C00F8F80C3
:1024F00000060000C007C1800007FFFFC000FF808A
:102500000007FFFF80003F00000000000000000007
:1025100000000000000000000000000000000000BB
:1025200000000000000000000000000000000000AB
:10253000000000000000000000000000001E00007D
:1025400000000000007FE00000000000007FFC00B1
:1025500000000000783FFE0000000000FC3FFF800C
:1025600000000001FE1FFFC000000001FE3FFFE071
:1025700000000071FE3FFFF0000001F0FC3FFFF89B
:1025800000000FF0783FFFF800003FF8007FFFFCED
:102590000001FFF8007FFFFC0007FFFC01FFFFFECA
:1025A000003FFFFF07FFFFFE01FFFFFFFFFFFFFEF2
:1025B00007FFFFFFFFFFFFFF3FFFFFFFFFFFFFFFE3
:1025C000000000000000000000000000000000000B
:1025D00000000000000000000000000000000000FB
:1025E000FFFFFFFFFFFFFFFFFFFFFFFFFFFFFFFFFB
:1025F000FFFFFFFFFFFFFFFFFFFFFFFFFFFFFFFFEB
:10260000F87FFF87FFF8FFFFF03FFF03FFF03FFE7B
:10261000C00FFC00FFC00FFC0000C0001C0001C088
:10262000030000300003000007C000F8000F800026
:102630003FF003FF003FF007FFFFFFFFFFFFFFFF3B
:10264000FFFFFFFFFFFFFFFFFFFFFFFFFFFFFFFF9A
:10265000FFFFFFFFFFFFFFFFFFFFFFFFFFFFFFFF8A
:10266000FFFFFFFFFFFFFFFFFFFFFFFFFFFFFFFF7A
:10267000FFFFFFFFFFFFFFFFFFFFFFFFFFFFFFFF6A
:10268000FFFFFFFFFFFFFFFFFFFFFFFFFFFFFFFF5A
:10269000FFFFFFFFFFFFFFFFFFFFFFFFFFFFFFFF4A
:1026A000FFFFFFFFFFFFFFFFFFFFFFFFFFFFFFFF3A
:1026B000FFFFFFFFFFFFFFFFFFFFFFFFFFFFFFFF2A
:1026C000FFFFFFFFFFFFFFFFFFFFFFFFFFFFFFFF1A
:1026D00028FCF817E2F2FA040000000000000000F5
:1026E00000000000000000000000000000000000EA
:1026F00000000000000000000000000000000000DA
:1027000000000000000000000000000000000000C9
:102710000000000000004000000078000000E00021
:102720000000F80000000000000078000000000039
:102730000000200000000000000000000000000079
:1027400000000000038000000000000C07C0000033
:102750000000001C07C00000000000000380000013
:102760000000000000000000000000000000000069
:102770000000000000000000001FC000000000007A
:10278000001FF80000000000001FFFF80000F80024
:102790000001FFFC001FF80000001F8003FFF8008D
:1027A000000C0003FFFFC000000FE01FFFF8000057
:1027B0000007FCFFFC00100000003CFFC007F00019
:1027C000000000FFC07FF0000007C07FCFFC0000CA
:1027D0000787FC7FCFC000000FE7FE7FC8006000C6
:1027E0001FE7FE7FC03FE1E01FE7FE1FC3FFE7F0EA
:1027F0001C079C0CC7FFE7F83C079CCC0F7FE7F851
:10280000380F1CCC1E3FE038380F1CCC7E39E03826
:10281000380F1CC67F39F03C380F3CE66F39F01C8E
:10282000381F38E06738F01C781F38E0E738F01CB4
:10283000781F39E3E71CF81C701E39E3E71CF81E0B
:10284000701E39E3E71CF81EF01E79C1E79CF80EF4
:10285000F01E79C9E79C780EF01E73C9F39E780EBE
:10286000E03C73C9F3DE780FF03C73C8F3CE7C070D
:10287000F83CF398F3CE3C07FE3CE39CF3CF3C07D7
:102880007E3CE39CF9CF3C0F1E7FE79CF9C73CFFE1
:10289000027FE71CF9E73C7E007FE7FCF9E73E7C1E
:1028A00000FFF7FC79E7FE00001FFFFE79E7FE005E
:1028B00000003FFC7FE7FE0003E000FC7FFFF80024
:1028C00003FF00047FFF0000003FFE003FC003C085
:1028D0000003FFE038003FC000000FFF000FFF8043
:1028E0000000001C07FFC000000000007FFC00008B
:1028F00000000000FC00000000000000800000005C
:102900000000000000000000000000018000000046
:1029100000000001800000000000000180000000B5
:10292000000000C183000000000000E187000000FB
:102930000000006187000000000000700E00000031
:10294000000000300C00000000000000000000004B
:102950000000000000000000000000000000000077
:10296000000000000000000000000F8001F00000E7
:1029700000000FF00FF0000000000FFC3FF8000017
:1029800000001C3C3C38000000001C1C38380000D3
:1029900000001C1C3838000000001C381C380000E7
:1029A000000018381C180000000038300E1C000011
:1029B000000038300E0C000000007FF00FFE000019
:1029C00000007FF00FFE00000000E0700E07000026
:1029D0000000E070060700000000C0600603000071
:1029E0000001C060060380000003C0600703E00030
:1029F000000F98600719F000001E19E00798780092
:102A0000003C01E007803C00003800700E001C0014
:102A1000007000300C000E00007C00381C003E00EE
:102A2000007FC0381C03FE0000EFFC181C3FF700BD
:102A300000E0FF9819FF870000C01FF81FF803008F
:102A400000C001F81F80038001C000381C00038013
:102A500001C000300C0003800183E0300E07E180EC
:102A60000187F0700E0FF1C0038E3870061C71C024
:102A7000038C1860061C30C0030C18E0071830C027
:102A8000070E38E0071C30E0070F78E0031EF0E087
:102A90000707F0C0030FE0600603E1C00387C070C2
:102AA0000E0001C0038000700E00018001800070E4
:102AB0000FE0018001C007F00FFE038001C07FF826
:102AC0001C7FE38001C7FE381C07FF0000FFE018F1
:102AD0001C00FF0000FF00380F000F0000F000F89E
:102AE0000FF0070000600FF003FF060000607FC0DA
:102AF000007FFE00007FFE000007FC00003FE000BA
:102B000000007800001E000000000000200000000F
:102B100000000001E000000000000003E0000000F1
:102B200000000007E000000000000007C0000000F7
:102B300000000003C000000000000001C000000011
:102B400000000001C0000000000000018000000043
:102B50000000000180000000000000018000000073
:102B600000000001800000000000000000000000E4
:102B70000000000000000000000000181800000025
:102B8000000000118800000000000003C0000000E9
:102B900000000187E1800000000033C7E3CC0000A3
:102BA00000002383C1C4000000000783C1E00000CF
:102BB0000001879188E180000003C31998C3C00019
:102BC0000007C1381C83C0000007C83C3C13E0006C
:102BD0000007CC3C3C33E0000001CE3C3C7380005D
:102BE00000004E3C3C720000000C0F3E7CF03000B8
:102BF00000070F3E3CF0E000000780000001E0000D
:102C00000006000000002000000003FFFFE00000BD
:102C100000007FFFFFFE00000001FFFFFFFF8000BC
:102C20000001FFFFFFFF80000001FFFFFFFF8000AA
:102C30000001FFFFFFFF80000001FFFFFFFF80009A
:102C40000001FFFFFFFF80000001FFFFFFFF80008A
:102C50000001FFFFFFFF80000001EFFFFFFF80008A
:102C60000000C7FFFFFF80000000EFFFFFFF000034
:102C70000000FFFFFFFF00000000FFFFFFFF00005C
:102C8000000073FFFFFE0000000073FFFFFE000066
:102C9000000073FFFFFE0000000071FFFFFE000058
:102CA000000039FFFFFC0000000038FFFFFC0000BF
:102CB00000001C7FFFF8000000001E3FFFF800002E
:102CC00000000F1FFFF0000000000787FFE000007A
:102CD000000003C3FFC00000000001F07F8000007F
:102CE000000000F87F0000000000003E7E000000B1
:102CF0000000001FF800000000000007E0000000D6
:102D0000000000018000000000000000001FD00053
:102D10000000005F00FFFC00000001FFE3FFFF0078
:102D2000000007FFF7FFFFC000000FFFFFFFFFC01D
:102D300000001FFFFFFFFFF000003FFFFFFFFFF855
:102D400000007FFFFFFAFFF800007FFFFFE01FFC9D
:102D50000000FFFFFF8007FC0000FFFFFF8003FE75
:102D60000000FFFFFFC28FFE0000FFFFFFFFCFFE4E
:102D70000001FFFFFFFFFFFF0000FFFFFFFFFFFF5E
:102D80000001FFFFFFFFFFFF0000FFFFFFFFFFFF4E
:102D90000000FFFFFFFFFFFF0000FFFFFFFFFFFF3F
:102DA00000007FFFFFFFE0FF00007FFFFFFFE07EEE
:102DB00000003FFFFFFFC00E00003FFFFFFFE806DF
:102DC00000000FFFFFFFFE0200000FFFFFFFFF806C
:102DD000000103FFFFFFFFE0000383FFFFFFFFF0A1
:102DE0000003C3FFFFFFFFF00003E3FFFFFFFFF857
:102DF0000007C1FFFFFFFFFC0007E1FFFFFFFFFC33
:102E00000007E1FFFFFFFFFC0007F0FFFFFFFFFEF1
:102E10000007F07FFFFFFFFE0007F87FFFFFFFFEC8
:102E20000003F83FFFFFFFFE0003FC1FFFFFFFFE54
:102E30000003FC0FFFFFFFFE0023FC03FFFFFFFC6E
:102E40000061FE01FFFFFFFC0061FE00FFFFFFFCD1
:102E50000061FE103FFFFFF800F1FE1803FFFFF8CE
:102E600000F0FF1C01FFFFF001F0FF0F00FFFFF07B
:102E700001F0FF0FE07FFFC001F87F0FF83FFF80F8
:102E800003F8FF8FFC3FFE0003F87F87FC7FF8000C
:102E900003FC7F87F03FF00007F83F87C07FF80012
:102EA00007FC3FC7003FF8000FFC3FC0007FF00069
:102EB0000FFC3FC0003FF0000FFE1F00001FF0009E
:102EC0001FFE1800000FC0001FFE080000030000D6
:102ED0003FFF0000000000003FFC00000000000079
:102EE0003FF00000000000003F80000000000000F4
:102EF0007C00000000000000F00000000000000066
:102F0000C000000000000000000021002400270095
:102F10002A002D00300033000101000004010701E8
:102F20000A01DB40A4A62EAFDA0281DA1281DA02AE
:102F3000818F2000A1C8D300408DAED580A80102AA
:102F400010202008081020401020408002010201BB
:102F50000804020101020408102040808040201073
:102F600008040201800402018040201008040201CC
:102F70000804020101020408102040800102040834
:102F80001020408000002200250028002B002E0089
:102F90003100340002010000050108010B010505A4
:102FA0000505070508080808020202020A0A0808BF
:102FB00004040404010101010101010103030303ED
:102FC00003030303040707070C0C0C0C0C0C0C0C7C
:102FD0000202020206060606060606060B0B0B0B8D
:102FE0000B0B0B0B00006000000000000000000055
:102FF0000000000000E000000000000000000000F1
:1030000000000001E00000000000000000000000DF
:10301000000001F0000000000000000000000000BF
:103020000003F000000000000000000000000000AD
:1030300007F0000000000000000000000000000792
:10304000F8000000000000000000000000000FF881
:1030500000000003C0007E000001E0007F0FF800C8
:10306000000003C000FE000001E000FFEFF80000D8
:103070000003C000FE000001E000FFFFF8000000B8
:1030800003C000F00000000F007FFE7FC0000003BF
:10309000C000F00000000F003FFE7FF83FF1FBCFC3
:1030A000FCFEF3BC3DEFE01FFE7FFF7FFBFFDFFE7A
:1030B000FEFFBC3DEFE01FC6FFFF7FFBFFDFFEFE14
:1030C000FFBC3DEFE00FE3C7FE787BC3DE1EF0FFE1
:1030D000BC3DEF0007FF87FC787BC3DE1EF0F83CA9
:1030E0003DEF0001FFFFF0007BC3C01EF0F03C3D50
:1030F000EF0001F37FE03FFBC3CFFEF0F03C3DEF7C
:103100000003E33F807FFBC3DFFEF0F03C3DEF00B8
:1031100007E73C00787BC3DE1EF0F03C3DEF000784
:10312000FFBE00787BC3DE1EF0F03C3DEF0007FFE2
:10313000FE00787BC3DE1EF0F03C3DEF000FFFFE8B
:10314000007FFBFFDFFEF0F03FFDEFE00FFFFF0031
:103150007FFBFFDFFEF0F03FFDEFE00FF9FF003EE9
:1031600079F9CF9EF0F01F3DE7E01FF1FF0000006E
:103170000000000000000000001F80FF007FFFFF34
:10318000FFFFFFFFFFFFFFE01C007F007FFFFFFF4F
:10319000FEB46D888D18E000001F007FFFFFFFFE6A
:1031A00095AD7DB577E000000F007FFFFFFFFEA526
:1031B000AD9D8D19E0000006007FFFFFFFFEB5AD5D
:1031C000EDB57EE00000000000018000000000007E
:1031D0000000000003800000000000000000000765
:1031E000C000000000000000000007C00000000058
:1031F00000000000000FC000000000000000000000
:103200001FE00000000000000000001FE0000000C0
:103210000000000000003FE000000000000000008F
:10322000003FF00000000000000000007FF0000000
:1032300000000000001FF87FF00000000000000008
:103240003FFE7FF0000000000000003FFF7FF00025
:103250000000000000001FFFFBE000000000000075
:10326000000FFFF9FFC00000000000000FFFF9FF92
:10327000F800000000000007FFF1FFFF0000000061
:10328000000003FC73FFFF80000000000001FE3F10
:10329000FFFF80000000000000FF1E0FFF00000085
:1032A000000000007FFE1FFC000000000000003F47
:1032B000FFFFF8000000000000000FDFFFE000004B
:1032C00000000000001F19FFC00000000000000007
:1032D0003F3CFF00000000000000007E7CF8000082
:1032E0000000000000007FFE7C00000000000000E5
:1032F00000FFFFFC0000000000000000FFFFFE00D8
:1033000000000000000000FFFFFE000000000000C1
:103310000001FFEFFE0000000000000001FFCFFEF3
:103320000000000000000003FF07FE000000000096
:10333000000003FC07FE0000000000000003F00393
:10334000FE00000000000000018000FE0000000000
:103350000000000000007E000000000000000000EF
:10336000003E000000000000000000000C00000013
:10337000000000078000FC000003C0000000078080
:1033800001FC000003C0000000078001FC000003F6
:10339000C0000000078001E00000001E00000007E0
:1033A0008001E00000001E007FE3F79FF9FDE77851
:1033B0007BDFC0FFF7FFBFFDFDFF787BDFC0FFF7BE
:1033C000FFBFFDFDFF787BDFC0F0F787BC3DE1FF6D
:1033D000787BDE00F0F787BC3DE1F0787BDE000013
:1033E000F787803DE1E0787BDE007FF7879FFDE196
:1033F000E0787BDE00FFF787BFFDE1E0787BDE0051
:10340000F0F787BC3DE1E0787BDE00F0F787BC3D5C
:10341000E1E0787BDE00F0F787BC3DE1E0787BDE21
:1034200000FFF7FFBFFDE1E07FFBDFC0FFF7FFBF5D
:10343000FDE1E07FFBDFC07CF3F39F3DE1E03E7BFD
:10344000CFC00000000000000000000000FFFFFFF0
:10345000FFFFFFFFFFFFFFC0FFFFFFFFFD68DB1166
:103460001A31C0FFFFFFFFFD2B5AFB6AEFC0FFFFC1
:10347000FFFFFD4B5B3B1A33C0FFFFFFFFFD6B5BA4
:10348000DB6AFDC0001FF80000FE7E0001FE7F80A9
:1034900007FE7FC00FFE7FE019FFFF9018FFFF3887
:1034A0003C7FFE787EFFFEFC7FFE7FFC7FFE7FFE82
:1034B000FFFE7FFEFFFE7FFEFFFE7FFFFFFE7FFF22
:1034C00087FE7FC187FCFFC1FFF9FFFFFFF3FFFF0E
:1034D000FFE7FFFEFFCFFFFE7FDFFFFE7FFFFFFC6A
:1034E0003E7FFE7C3CFFFE3819FFFF100BFE7FB0D5
:1034F00007FE7FE003FE7F8000FE7F00003E7C0031
:103500000007E00001E00F8003F00FC003301CC093
:1035100003301CC01F3FFCF87F3FFCFC7F3FFCFEDC
:103520007F3FFCFE7F3FFDFE7FFFFFFE7FFFFFFE34
:103530006041020E6041020E6041020E6041020EC7
:103540006041020E7FFFFFFE7FFFFFFE6041020E23
:103550006041020E6041020E6041020E6041020EA7
:103560007FFFFFFE7FFFFFFE6041020E6041020E03
:103570006041020E6041020E6041020E7FFFFFFCBF
:103580003FFFFFFC0002000000070000000F80006A
:10359000060F81E007801BF807DF9BB8071FCB5899
:1035A000027FE25800FFF25801FFFA5801FFFA5873
:1035B0003BFFFA587BFFFA587BFFFA587BFFFA581B
:1035C00009FFFA1801FFFA1801FFFA18007FF21834
:1035D000063FE218079F861C07C00E1E070F9E06B7
:1035E000000F9C070007381B0006381B0002181B41
:1035F00000001C3700001C0E00000FFE000007FC3E
:10360000000001E0000020002300260029002C001B
:103610002F00320000010000030106010901000033
:103620000A0B02090C0D0E0807030401000000003C
:10363000000000000000000000000000000000008A
:103640000000000000000000000012111000000047
:10365000000000000000000000000000000000006A
:1036600000000000000103070F1F3F7F0080C0E043
:10367000F0F8FCFE00000000003E5B4F5B3E3E6B3E
:103680004F6B3E1C3E7C3E1C183C7E3C181C577DFC
:10369000571C1C5E7F5E1C00183C1800FFE7C3E748
:1036A000FF0018241800FFE7DBE7FF30483A060E5A
:1036B0002629792926407F050507407F05253F5AA1
:1036C0003CE73C5A7F3E1C1C08081C1C3E7F142211
:1036D0007F22145F5F005F5F06097F017F006689BC
:1036E000956A606060606094A2FFA29408047E0402
:1036F0000810207E201008082A1C08081C2A080828
:103700001E101010100C1E0C1E0C30383E383006E7
:103710000E3E0E06000000000000005F00000007E3
:10372000000700147F147F14242A7F2A1223130811
:10373000646236495620500008070300001C2241ED
:10374000000041221C002A1C7F1C2A08083E080891
:103750000080703000080808080800006060002041
:10376000100804023E5149453E00427F4000724924
:103770004949462141494D331814127F10274545C8
:1037800045393C4A494931412111090736494949DE
:1037900036464949291E000014000000403400004C
:1037A00000081422411414141414004122140802B5
:1037B000015909063E415D594E7C1211127C7F4928
:1037C0004949363E414141227F4141413E7F49497D
:1037D00049417F090909013E414151737F080808A9
:1037E0007F00417F41002040413F017F081422417A
:1037F0007F404040407F021C027F7F0408107F3ED4
:103800004141413E7F090909063E4151215E7F0940
:10381000192946264949493203017F01033F4040A7
:10382000403F1F2040201F3F4038403F6314081492
:103830006303047804036159494D43007F414141CA
:103840000204081020004141417F040201020440AB
:1038500040404040000307080020545478407F282F
:103860004444383844444428384444287F38545425
:10387000541800087E090218A4A49C787F08040448
:103880007800447D40002040403D007F10284400E7
:1038900000417F40007C047804787C080404783878
:1038A00044444438FC1824241818242418FC7C08A8
:1038B000040408485454542404043F44243C404025
:1038C000207C1C2040201C3C4030403C44281028D8
:1038D000444C9090907C4464544C44000836410021
:1038E0000000770000004136080002010204023C9B
:1038F0002623263C1EA1A161123A4040207A38546A
:1039000054555921555579412254547842215554E2
:10391000784020545579400C1E5272123955555535
:1039200059395454545939555454580000457C4120
:103930000002457D420001457C407D1211127DF060
:10394000282528F07C545545002054547C547C0A8A
:10395000097F4932494949323A4444443A324A4853
:1039600048303A4141217A3A42402078009DA0A057
:103970007D3D4242423D3D4040403D3C24FF2424A9
:10398000487E4943662B2FFC2F2BFF0929F620C0C8
:10399000887E090320545479410000447D41304819
:1039A000484A32384040227A007A0A0A727D0D195C
:1039B000317D2629292F28262929292630484D40BE
:1039C00020380808080808080808382F10C8ACBABA
:1039D0002F102834FA00007B000008142A14222239
:1039E000142A14085500550055AA55AA55AAFF5582
:1039F000FF55FF000000FF00101010FF001414140A
:103A0000FF001010FF00FF1010F010F0141414FC51
:103A1000001414F700FF0000FF00FF1414F404FC6E
:103A2000141417101F10101F101F1414141F00104F
:103A30001010F0000000001F101010101F101010C8
:103A400010F010000000FF101010101010101010D7
:103A5000FF10000000FF140000FF00FF00001F1017
:103A6000170000FC04F414141710171414F404F4D1
:103A70000000FF00F714141414141414F700F714C2
:103A80001414171410101F101F141414F414101011
:103A9000F010F000001F101F0000001F14000000B5
:103AA000FC140000F010F01010FF10FF141414FFAD
:103AB000141010101F00000000F010FFFFFFFFFFA8
:103AC000F0F0F0F0F0FFFFFF0000000000FFFF0F3C
:103AD0000F0F0F0F3844443844FC4A4A4A347E02E0
:103AE000020606027E027E02635549416338444461
:103AF0003C04407E201E2006027E020299A5E7A516
:103B0000991C2A492A1C4C7201724C304A4D4D3086
:103B10003048784830BC625A463D3E494949007EAB
:103B20000101017E2A2A2A2A2A44445F4444405142
:103B30004A444040444A51400000FF0103E080FFF6
:103B4000000008086B6B083612362436060F090F82
:103B500006000018180000001010003040FF01019E
:103B6000001F01011E00191D1712003C3C3C3C00C7
:103B7000000000002200FF21000033382538112406
:103B80001FBECFEFD1E2DEBFCDBF00E00CBF2AE009
:103B9000AEE5B8E001C01D92AC35B207E1F718E020
:103BA000A0E0B2E0E4EEF5E700E00BBF02C0079052
:103BB0000D92AE35B107D9F71DE1CEEBDDE100E0A6
:103BC00006C021970109802FFE010E94AD39CD3B2F
:103BD000D10780E00807A9F70E9449320C94E13A26
:103BE0000C940000FC01538D448D252F30E0842F70
:103BF00090E0821B930B541710F0CF960895019715
:103C00000895FC01918D828D981761F0828DDF01FE
:103C1000A80FB11D5D968C91928D9F5F9F73928FBF
:103C200090E008958FEF9FEF0895FC01918D828DB4
:103C3000981731F0828DE80FF11D858D90E0089581
:103C40008FEF9FEF0895FC01918D228D892F90E0D9
:103C5000805C9F4F821B91098F73992708958EE195
:103C600099E0F1DF21E0892B09F420E0822F08950B
:103C7000FC01848DDF01A80FB11DA35ABF4F2C9109
:103C8000848D90E001968F739927848FA689B789D8
:103C90002C93A089B1898C91837080648C93938DCF
:103CA000848D981306C00288F389E02D80818F7D72
:103CB00080830895EF92FF920F931F93CF93DF932A
:103CC000EC0181E0888F9B8D8C8D981305C0E8896D
:103CD000F989808185FD25C0F62E0B8D10E00F5FE0
:103CE0001F4F0F731127E02E8C8DE8120BC00FB6FB
:103CF00007FCFACFE889F989808185FFF5CFCE01ED
:103D0000B7DFF2CF8B8DFE01E80FF11DE35AFF4FB5
:103D1000F0829FB7F8940B8FEA89FB8980818062DB
:103D20000AC09FB7F894EE89FF896083E889F98912
:103D300080818370806480839FBF81E090E0DF9109
:103D4000CF911F910F91FF90EF900895CF93DF9344
:103D5000EC01888D8823C1F0EA89FB89808185FD8B
:103D600005C0A889B9898C9186FD0EC00FB607FCE5
:103D7000F5CF808185FFF2CFA889B9898C9185FF25
:103D8000EDCFCE0175DFE8CFDF91CF91089580E0D0
:103D900090E0892B19F063DF811125C080E090E06D
:103DA000892B41F080E090E0892B21F00E940000F7
:103DB00081111CC080E090E0892B41F080E090E010
:103DC000892B21F00E940000811113C080E090E057
:103DD000892BA1F080E090E0892B81F00E94000007
:103DE00081110AC008950E940000D8CF0E940000EF
:103DF000E1CF0E940000EACF0C94000008953FB785
:103E0000F8948091B1089091B208A091B308B09154
:103E1000B40826B5A89B05C02F3F19F00196A11D37
:103E2000B11D3FBFBA2FA92F982F8827820F911D50
:103E3000A11DB11DBC01CD0142E0660F771F881F97
:103E4000991F4A95D1F708958F929F92AF92BF9292
:103E5000CF92DF92EF92FF920F931F93CF93DF9356
:103E6000CDB7DEB7AC970FB6F894DEBF0FBECDBFAF
:103E7000DC011696ED91FC911797319609F46DC00F
:103E800069018A017B014C01FE0131965F0188E2E4
:103E9000DF011D928A95E9F7D401ED91FC9104842C
:103EA000F585E02DB501C4011995009709F057C0BB
:103EB0001CA61BA61AA619A6D401ED91FC91068496
:103EC000F785E02D9E01275D3F4FAE01455D5F4FB9
:103ED000B501C4011995009709F041C0C114D1047E
:103EE00039F088E2F501D60101900D928A95E1F74B
:103EF000E114F10481F08CA5682F782F770F770BF0
:103F0000072E000C880B990B0E94EA38F70160839A
:103F10007183828393830115110589F08AA5682F27
:103F2000782F770F770B072E000C880B990B0E94C8
:103F3000EA38D8016D937D938D939C9313978BA54D
:103F40009CA5009739F429A53AA5232B41F486E1D5
:103F500090E005C080E090E002C087E190E0AC9680
:103F60000FB6F894DEBF0FBECDBFDF91CF911F918A
:103F70000F91FF90EF90DF90CF90BF90AF909F9008
:103F80008F9008958F929F92AF92BF92CF92DF92BF
:103F9000EF92FF920F931F93CF93DF93EC018B016E
:103FA0005A017901E881F9810284F385E02D1995A0
:103FB000C82EB801685F7F4FE881F9810284F385DC
:103FC000E02DCE011995D82EB801605F7F4FE881B2
:103FD000F9810284F385E02DCE011995882EB80170
:103FE000685E7F4FE881F9810284F385E02DCE0180
:103FF0001995982EB801605E7F4FE881F98102849F
:10400000F385E02DCE0119959C2D9D0D980D990DF0
:1040100089130FC0892D90E09829F5019183808341
:104020008D2D90E09C29F7019183808380E090E0C2
:1040300002C085E190E0DF91CF911F910F91FF9039
:10404000EF90DF90CF90BF90AF909F908F900895AA
:1040500047E050E080E0FB012191BF01042E01C048
:10406000220F0A94EAF7820F41505109A0F70895F0
:104070003F924F925F926F927F928F929F92AF92F8
:10408000BF92CF92DF92EF92FF920F931F93CF9345
:10409000DF93EC01162F7A016901B1DE4B015C015F
:1040A000112311F0388401C0312C2701440C551C18
:1040B000440C551C85E0481A51083601660C771CE3
:1040C000660C771C85E0681A710800E010E060E07B
:1040D00070E0CB012A813B814C815D812617370737
:1040E000480759072CF44FEF3FEF2FEF9FEF2AC0FF
:1040F0000115110531F482E0E816F1044CF0C2011B
:1041000005C082E0C816D1041CF0C3010197F1F785
:1041100076DE681979098A099B09E985F0E0EE0FD6
:10412000FF1FEC5FF94CA591B4913C910F5F1F4FBD
:1041300028852323321203C097FFCCCFD4CF462F3C
:10414000372F282F642F732F822FDF91CF911F914C
:104150000F91FF90EF90DF90CF90BF90AF909F9026
:104160008F907F906F905F904F903F900895CF9287
:10417000DF92EF92FF920F931F93CF93DF93CDB710
:10418000DEB728970FB6F894DEBF0FBECDBFDC01B7
:104190001696ED91FC911797319691F18A017B016A
:1041A0001D821E821F82188619821A821B821C821F
:1041B000DC01ED91FC910480F581E02DAE014F5FB3
:1041C0005F4FBE016B5F7F4F19956C01892BB1F476
:1041D000E114F10441F06D817E818F8198850E9408
:1041E0007039F70160830115110541F069817A8109
:1041F0008B819C810E947039D8016C93C60102C0EA
:1042000087E190E028960FB6F894DEBF0FBECDBFD1
:10421000DF91CF911F910F91FF90EF90DF90CF90A2
:104220000895FC0177FDB9C08085918568177907ED
:104230000CF0B3C057FDB1C082859385481759076C
:104240000CF008958689823079F484819581DC01AF
:10425000A61BB70BBD016150710986819781DC01F6
:10426000A41BB50BAD010EC0833009F084C06427D8
:104270007527CA018627972768277927468157819E
:10428000481B590B415051092130310531F048F19B
:104290002230310509F44AC00895CA0157FD079636
:1042A0009C01A3E035952795AA95E1F7A481B581F6
:1042B0002A9FC0012B9F900D3A9F900D1124680FEB
:1042C000791F078CF0A1E02DE60FF71F47705527E7
:1042D00081E090E001C0880F4A95EAF79081892B30
:1042E00048C0CA0157FD07969C0193E03595279574
:1042F0009A95E1F7A481B5812A9FC0012B9F900D6B
:104300003A9F900D1124680F791F078CF0A1E02DC2
:10431000E60FF71F4770552781E090E001C0880F36
:104320004A95EAF780959081892323C0CA0157FDF9
:1043300007969C0183E0359527958A95E1F7A4813E
:10434000B5812A9FC0012B9F900D3A9F900D11249B
:10435000680F791F078CF0A1E02DE60FF71F47705B
:10436000552781E090E001C0880F4A95EAF79081D7
:10437000892780830895813009F086CF64277527C7
:10438000462757276427752784819581DC01A61B62
:10439000B70BBD016150710977CF08950E94D63ADD
:1043A0001F93CF93DF93EC01162F8D8D9E8D892B5C
:1043B000B1F02FA938AD49AD5AAD60E074E284EF99
:1043C00090E00E944E39DA01C9014097A109B10974
:1043D000B695A795979587958093B8000EC08B8D5D
:1043E0009C8D892B19F08DA99EA995D7EFA5F8A9C9
:1043F00090818CA9809589238083111102C066EA7F
:1044000001C067EACE010E94252B8D8D9E8D892BE0
:10441000B1F02BAD3CAD4DAD5EAD60E074E284EF2C
:1044200090E00E944E39DA01C9014097A109B10913
:10443000B695A795979587958093B8000EC0EFA580
:10444000F8A990818CA9892B80838B8D9C8D892BD9
:1044500021F0DF91CF911F9156C7DF91CF911F912E
:1044600008950F931F93CF93DF93DC015696EC9141
:104470005697E23071F0E330E9F0E13079F5FB0175
:1044800014960D90BC91A02DA41BB50BA21BB30BD1
:1044900018C0EC01EC81FD81E61BF70BBF016150F8
:1044A0007109EE81FF81DF01A41BB50BAD01421B39
:1044B000530B14C0DA01EC01EE81FF81E61BF70B10
:1044C0003197F7FD0DC0EC014E815F81E417F507D0
:1044D0003CF4AF01BD010E94A03002C00E94073130
:1044E000DF91CF911F910F9108950F931F93DC01DE
:1044F0005696EC915697E23061F0E33009F1E130E5
:1045000081F51496ED91FC911597E41BF50B31970D
:1045100023C0DC011496ED91FC911597DF01A61BD9
:10452000B70BBD01DC011696ED91FC911797DF01E9
:10453000A41BB50BAD0141505109621B730B11C097
:10454000FA01DC0116964D915C911797DA01A61BD2
:10455000B70BBD01621B730BAB01BF010E9407319A
:104560000CC057FD0AC0DC011696ED91FC9117971F
:104570004E175F0714F40E94A0301F910F91089509
:104580001F920F920FB60F9211240BB60F922F931A
:104590003F934F935F936F937F938F939F93AF93CB
:1045A000BF93EF93FF938EE199E062DBFF91EF9170
:1045B000BF91AF919F918F917F916F915F914F913B
:1045C0003F912F910F900BBE0F900FBE0F901F9039
:1045D00018951F920F920FB60F9211240BB60F92DF
:1045E0002F938F939F93EF93FF93E0912E09F09178
:1045F0002F098081E0913409F091350982FD12C0C4
:104600009081809137098F5F8F73209138098217CD
:1046100051F0E0913709F0E0E25EF64F958F80931C
:10462000370901C08081FF91EF919F918F912F9168
:104630000F900BBE0F900FBE0F901F901895362F46
:1046400090E0FC01E25EF94C4491FC01E25CF04D2B
:104650002491FC01E256F04D9491992309F46CC029
:10466000442309F455C050E0FA013197E231F105D5
:1046700008F04EC08827EE58FF4F8F4F0C94AD398D
:10468000809180008F7707C0809180008F7D03C06C
:1046900080918000877F809380003AC084B58F77B7
:1046A00002C084B58F7D84BD33C08091B0008F7708
:1046B00003C08091B0008F7D8093B00029C08091AD
:1046C00090008F7707C0809190008F7D03C080910C
:1046D0009000877F809390001BC08091A0008F770F
:1046E00007C08091A0008F7D03C08091A000877FCC
:1046F0008093A0000DC0809120018F7707C080912A
:1047000020018F7D03C080912001877F809320014D
:10471000E92FF0E0EE0FFF1FEC57F04DA591B4919B
:104720009FB7F894311104C08C912095282302C0C2
:10473000EC912E2B2C939FBF0895CF93DF9390E0A5
:10474000FC01E25CF04D2491FC01E256F04D8491B5
:10475000882361F190E0880F991FFC01E85FF04D1C
:10476000C591D491FC01EC57F04DA591B491611124
:1047700009C09FB7F8948881209582238883EC91A3
:104780002E230BC0623061F49FB7F8948881322FDA
:10479000309583238883EC912E2B2C939FBF06C0EA
:1047A0008FB7F894E8812E2B28838FBFDF91CF91AC
:1047B00008958F929F92AF92BF92CF92DF92EF9225
:1047C000FF926B017C011BDB4B015C01C114D10426
:1047D000E104F104E9F013DBDC01CB01881999094C
:1047E000AA09BB09883E9340A105B10578F321E0F1
:1047F000C21AD108E108F10888EE880E83E0981EFD
:10480000A11CB11CC114D104E104F10421F7DECFD5
:10481000FF90EF90DF90CF90BF90AF909F908F90E0
:104820000895EF92FF920F931F93CF93DF93EC01C4
:104830008B0188E2FB0111928A95E9F761E08E8194
:104840007CDF60E08E81FBDE64E170E080E090E080
:10485000B0DF61E08E81F3DE60E08E816EDF8FE598
:1048600090E00197F1F7E881F9810084F185E02D6E
:1048700026E030E04AE050E060E0CE0119956E316C
:1048800071058105910534F4B82FA72F962F88273D
:1048900080616FC0E881F9810084F185E02D26E018
:1048A00030E04AE050E061E0CE01199562337105D5
:1048B0008105910534F4B82FA72F962F88278161A1
:1048C00058C07801F8E2EF0EF11CE881F98100840C
:1048D000F185E02D26E030E04AE050E060E0CE01D6
:1048E0001995683171058105910534F4B82FA72F0A
:1048F000962F882782613DC0E881F9810084F18587
:10490000E02D26E030E04AE050E061E0CE0119956C
:104910006B3071058105910534F4B82FA72F962FC0
:104920008827836126C021E06932710581059105E0
:104930000CF420E0F80121938F01EE15FF0529F614
:10494000E881F9810084F185E02D26E030E04AE03D
:1049500050E060E0CE01199568317105810591053F
:1049600034F4B82FA72F962F8827846102C080E0E7
:1049700090E0DF91CF911F910F91FF90EF900895FC
:104980001F920F920FB60F9211242F933F938F9384
:104990009F93AF93BF9380911A0990911B09A091A7
:1049A0001C09B0911D093091B00823E0230F2D3769
:1049B00020F40196A11DB11D05C026E8230F029623
:1049C000A11DB11D2093B00880931A0990931B0973
:1049D000A0931C09B0931D098091B1089091B20871
:1049E000A091B308B091B4080196A11DB11D8093A8
:1049F000B1089093B208A093B308B093B408BF91E4
:104A0000AF919F918F913F912F910F900FBE0F907B
:104A10001F901895DC0117967C936E931697FB01F7
:104A2000E25CF04DE4911896EC931897FB01E25686
:104A3000F04D649119966C930895CF92DF92EF92A6
:104A4000FF920F931F93CF93DF93EC017A016901DB
:104A5000E1DFE881F9810480F581E02D9801A6016C
:104A6000B701CE01DF91CF911F910F91FF90EF9091
:104A7000DF90CF901994CF92DF92EF92FF920F9335
:104A80001F93CF93DF93EC017A016901C3DFE881C3
:104A9000F9810190F081E02D9801A601B701CE01C6
:104AA000DF91CF911F910F91FF90EF90DF90CF900A
:104AB00019940895FC016370668B84819581268129
:104AC0003781613039F0633029F0918780873387EF
:104AD00022870895318720879387828708956F9270
:104AE0007F928F929F92AF92BF92CF92DF92EF927E
:104AF000FF920F931F93CF93DF93EC014B015A0169
:104B000069013801E881F9810284F385E02D199566
:104B1000E881F9810288F389E02D87019601A501DA
:104B2000B401CE011995A501460D571D41505109FB
:104B3000E881F9810288F389E02D9601B401CE0164
:104B40001995E881F9810088F189E02D9301A5018B
:104B5000B401CE011995C80CD91CB6016150710978
:104B6000E881F9810088F189E02D9301A501CE014A
:104B70001995E881F9810688F789E02DCE01DF914A
:104B8000CF911F910F91FF90EF90DF90CF90BF904A
:104B9000AF909F908F907F906F9019948F929F927B
:104BA000AF92BF92CF92DF92EF92FF920F931F933B
:104BB000CF93DF934C016B015A01E901DC01ED91C8
:104BC000FC916217730781F40417150724F48B2DE9
:104BD0005801042F182F0A191B0998012F5F3F4F06
:104BE000048CF58DE02D12C04017510709F52617EA
:104BF000370724F48D2D6901C62FD82F9E012C195B
:104C00003D092F5F3F4F068CF78DE02D8701A501F1
:104C1000B601C4011995DF91CF911F910F91FF90BB
:104C2000EF90DF90CF90BF90AF909F908F900895BE
:104C30000284F385E02D1995D401ED91FC9104884F
:104C4000F589E02D9E01A501B601C4011995D40195
:104C5000ED91FC910688F789E02DC401DF91CF9199
:104C60001F910F91FF90EF90DF90CF90BF90AF908A
:104C70009F908F901994EF92FF920F931F93DC01F6
:104C80001A960D911C911B9718962D913C9119978E
:104C9000ED91FC9100A0F1A1E02D7B0140E050E0FE
:104CA00060E070E019951F910F91FF90EF900895CB
:104CB0004F925F926F927F928F929F92AF92BF922C
:104CC000CF92DF92EF92FF920F931F93CF93DF93D8
:104CD0006C012B015A0139014801DC01ED91FC9175
:104CE0000284F385E02D1995E201640C751CD60150
:104CF000ED91FC91C615D7055CF40088F189E02D93
:104D000087019401A501BE01C60119952196EFCF37
:104D10000688F789E02DC601DF91CF911F910F9191
:104D2000FF90EF90DF90CF90BF90AF909F908F90CB
:104D30007F906F905F904F9019948F929F92AF9257
:104D4000BF92CF92DF92EF92FF920F931F93CF9378
:104D5000DF93EC015B014A016901E881F98102847A
:104D6000F385E02D199595012C0D3D1D215031093C
:104D7000E881F9810488F589E02D78018401A40196
:104D8000B501CE011995E881F9810688F789E02DF2
:104D9000CE01DF91CF911F910F91FF90EF90DF90A7
:104DA000CF90BF90AF909F908F9019948F929F92C9
:104DB000AF92BF92CF92DF92EF92FF920F931F9329
:104DC000CF93DF93EC015B014A0169017801E8812F
:104DD000F9810284F385E02D1995C80CD91C860150
:104DE00001501109E881F9810488F589E02D9501C8
:104DF000A401B501CE011995E881F9810688F789EA
:104E0000E02DCE01DF91CF911F910F91FF90EF9098
:104E1000DF90CF90BF90AF909F908F90199408959E
:104E2000EF92FF920F931F93DC01ED91FC9100A094
:104E3000F1A1E02D19951F910F91FF90EF9008952A
:104E40000F931F93DC01ED91FC91068CF78DE02D03
:104E500019951F910F9108950F931F93DC01ED9108
:104E6000FC91048CF58DE02D19951F910F910895FB
:104E7000DC01ED91FC910084F185E02D19942F92D5
:104E80003F924F925F926F927F928F929F92AF92DA
:104E9000BF92CF92DF92EF92FF920F931F93CF9327
:104EA000DF9300D000D0CDB7DEB72C017E836D83B9
:104EB0006A015901C801FC82EB824801841A950AF3
:104EC00097FE03C091948194910835012D813E8114
:104ED000621A730A77FE03C07194619471086814B2
:104EE00079045CF43A2D2B2D5C01832F922F3D81A8
:104EF0002E81DE82CD82C32ED22EAD81BE81AA1636
:104F0000BB065CF43C2D2D2D6C01832F922F3D812F
:104F10002E81BE82AD82A32EB22E85012D813E81CF
:104F2000021B130B1C012C183D0837FE03C03194E3
:104F300021943108780117FF03C03FEFE31AF30A09
:104F4000F594E794C816D9062CF08FEF9FEF9A835B
:104F5000898304C0A1E0B0E0BA83A9832D813E819A
:104F6000A216B30624F1D201ED91FC910484F585DB
:104F7000E02D2B813C816814790424F44D815E81FD
:104F8000B60103C0A6016D817E81C2011995E218A8
:104F9000F308F7FE06C029813A81C20ED31EE00E47
:104FA000F11E8D819E8101969E838D83D7CF26969B
:104FB0000FB6F894DEBF0FBECDBFDF91CF911F912A
:104FC0000F91FF90EF90DF90CF90BF90AF909F90A8
:104FD0008F907F906F905F904F903F902F900895AB
:104FE00085ED8093BC008091BC0084FDFCCF1092C5
:104FF0008A0808954091F708262F30E0240F311DCC
:1050000021323105DCF420918A082430C9F4FC01F6
:1050100080E090E0861758F43091F7082191DC0188
:10502000A952B74FA30FB11D2C930196F3CF8091D6
:10503000F708680F6093F70880E0089581E008950D
:1050400082E0089508950895E0918C0880918B087E
:10505000E81730F4F0E0E357F74F808190E00895CF
:105060008FEF9FEF089590918C0880918B0898178F
:1050700050F4E92FF0E0E357F74F208130E09F5FD5
:1050800090938C0802C02FEF3FEFC90108958091E3
:105090008B0890E020918C08821B91090895CF9293
:1050A000DF92EF92FF920F931F93CF93DF937C01D8
:1050B000CB018A012091D608222389F0EB016B01F4
:1050C000C40ED51ECC15DD0561F06991D701ED91B7
:1050D000FC910190F081E02DC7011995F3CF642F69
:1050E00089DFC801DF91CF911F910F91FF90EF9061
:1050F000DF90CF900895CF93DF931F92CDB7DEB7A7
:1051000069832091D6082223D1F0209162082032B1
:1051100040F021E030E0FC013383228380E090E026
:1051200014C080916308E82FF0E0EA54F74F9981AA
:1051300090838F5F809363088093620804C061E06E
:10514000CE01019657DF81E090E00F90DF91CF9183
:105150000895089580E090E008958F929F92AF9215
:10516000CF92EF92FF920F931F93CF93DF93EC01B7
:10517000262F898D9A8D009709F041C06A3059F425
:105180001D861C862D898E859F8538E0239F800D86
:10519000911D112442C06D3009F4A8C08F89882365
:1051A000C9F03C898C859D8546E0349F800D911D1A
:1051B0001124488559854817590764F41D861C86B3
:1051C0003D898E859F8548E0349F800D911D112477
:1051D0009F878E87EA88FB88088919894E855F85B5
:1051E0006C857D85AD88CC88CE0176D52C898C8563
:1051F0009D8536E0239F800D911D11243EC06A30AD
:1052000079F41D861C862D89FC013696E4918E85E5
:105210009F852E9F800D911D11249F878E8766C0CC
:105220006D3009F463C0FC0134963491631708F4BF
:105230005DC03196E491E61708F458C0462F431B31
:10524000342FFC0132968590949047E0349F800C77
:10525000911C1124F401329634913196E491332358
:1052600011F0E1110DC0F4013496E4912C898C8584
:105270009D85E29F800D911D11249D878C8736C0EE
:10528000F401359644915F89552319F15C89E32F28
:10529000F0E0E40FF11D47FDFA955E9FB0015F9FBE
:1052A000700D11244C855D85460F571F68857985E3
:1052B0006417750774F41D861C863D89FC013696BB
:1052C000E4918E859F853E9F800D911D11249F87BF
:1052D0008E87EA88FB88088919894E855F856C85E9
:1052E0007D85AD88CC88CE01F7D4BDCF81E090E03C
:1052F000DF91CF911F910F91FF90EF90CF90AF90E2
:105300009F908F90089508958EBD00000DB407FE04
:10531000FDCF8EB508958CBD9DBD08951F920F924F
:105320000FB60F9211240BB60F922F933F934F930A
:105330005F936F937F938F939F93AF93BF93EF93FD
:10534000FF938091B900887F803609F49CC068F58E
:10535000883209F45BC090F4803109F454C038F409
:10536000882309F4F6C0883009F44DC0F5C08831AF
:1053700009F44CC0803209F45DC0EEC0803409F4F9
:1053800068C048F4803309F455C0883309F0E4C09C
:1053900080938808D8C0803509F44FC0883509F457
:1053A0005DC0883409F0D8C0D6C0883909F4C7C0B8
:1053B000A8F4883709F467C038F4883609F463C064
:1053C000803709F460C0C8C0883809F4B8C0803993
:1053D00009F45FC0803809F0BFC05BC0803B09F4AE
:1053E00086C038F4803A09F466C0883A09F47FC070
:1053F000B3C0803C09F4A7C0883C09F4A4C0883B32
:1054000009F48AC0A9C08091850810C090918708CE
:1054100080918608981770F5E091870881E08E0FDB
:1054200080938708F0E0EC59F74F80818093BB00B0
:1054300085EC86C0809388088EC0E091870881E063
:105440008E0F809387088091BB00F0E0EC59F74FF6
:10545000808390918708809186086EC0E0918708CC
:1054600081E08E0F809387088091BB00F0E0EC59BB
:10547000F74F80838091890881116DC081E080930E
:10548000840884EA61C083E080938A081092190935
:10549000CFCF80911909803208F051C0E0911909ED
:1054A00081E08E0F809319098091BB00F0E0E750F6
:1054B000F74F8083BDCF85EC8093BC0010928A08A3
:1054C00080911909803230F4E0911909F0E0E75039
:1054D000F74F10826091190970E0E0915E08F09139
:1054E0005F0889EF98E019951092190935C084E09A
:1054F00080938A081092F8081092F708E0916008EB
:10550000F091610819958091F708811105C081E03B
:105510008093F7081092D708E091F80881E08E0F89
:105520008093F808F0E0E952F74F80818093BB0048
:105530009091F8088091F708981708F479CF85E8DA
:105540008093BC0009C085EC8093BC0010928A084F
:1055500003C01092880844DDFF91EF91BF91AF9195
:105560009F918F917F916F915F914F913F912F917B
:105570000F900BBE0F900FBE0F901F90189530919B
:105580006208313208F04BC080918A088111FCCF4B
:105590009091B50822E020938A0821E020938908A1
:1055A0002FEF209388081092870830938608E6EB47
:1055B000F8E0A4E6B8E020E0321721F041914D93E5
:1055C0002F5FFACF1092850820918508990F922BB2
:1055D0009093850890918408913061F4109284082A
:1055E000909185089093BB009091BC0093FDF8CFFB
:1055F00095EC01C095EE9093BC0090918A08923092
:10560000E1F3909188089F3F79F08091880880327B
:1056100041F080918808803331F084E005C081E05A
:1056200003C082E001C083E0109263081092620818
:105630001092D608089581E08093D6086093B5084B
:10564000109263081092620808951F93CF93DF931E
:10565000FC01858D968D0097F1F0162FEF0161A169
:10566000EADF8D8D9E8DDC01ED91FC910190F08142
:10567000E02D60E019958D8D9E8DDC01ED91FC9102
:105680000190F081E02D612F19958D8D9E8DDF9118
:10569000CF911F9174CFA5A5B6A59C9183A98095A4
:1056A00089238C93838D948D892B29F0862FDF910C
:1056B000CF911F9129CE28E030E080E8A1A5B2A5C6
:1056C00091A9462F482319F04C91942B03C04C917B
:1056D000909594239C93A3A5B4A54C9192A9942B47
:1056E0009C93A3A5B4A54C9192A9909594239C93C7
:1056F00086952150310911F7DF91CF911F910895BF
:10570000CF93C82F60E78DE09AE095DF61E070E00D
:1057100001C0660FCA95EAF78DE09AE0ECDC8DE0F7
:105720009AE0CF912CCFEEE1F9E0A089B18982E037
:105730008C93A485B5851C92A685B7858FEC8C9338
:10574000108EA489B58986E08C93A289B3898C9147
:1057500080618C93A289B3898C9188608C93A28993
:10576000B3898C9180688C930288F389E02D8081C5
:105770008F7D80830895DF92EF92FF920F931F93A6
:10578000CF93DF93D82ED92FC62F8091360A9091D0
:10579000370A009709F44AC060913A0A4CDF8091B9
:1057A000360A9091370ADC01ED91FC910190F0816D
:1057B000E02D60E01995ED2CFD2E11E08091360A68
:1057C0009091370ACC2351F11032A8F0D8DE6091C5
:1057D0003A0A8091360A9091370A2DDF8091360A75
:1057E0009091370ADC01ED91FC910190F081E02D60
:1057F00060E0199511E08091360A9091370AF7011F
:105800006491DC01ED91FC910190F081E02D1995FE
:105810001F5FC150BFEFEB1AFB0AD0CFDF91CF91D2
:105820001F910F91FF90EF90DF90A9CEE091460A73
:10583000F091470A908180914C0A8095892380835A
:105840000D2D1D2FCC2309F438C0F801849120912F
:10585000340A3091350A232B29F056DDC1500F5FF1
:105860001F4FF0CF28E030E040E8E091420AF0918D
:10587000430A90914A0A582F542319F05081952BCE
:1058800003C05081909595239083E091440AF09154
:10589000450A508190914B0A952B9083E091440AE0
:1058A000F091450A508190914B0A909595239083F1
:1058B000469521503109C9F6D1CFDF91CF911F9183
:1058C0000F91FF90EF90DF900895EF92FF920F936A
:1058D0001F93CF93DF938091360A9091370A892BDB
:1058E000D1F02091500A3091510A4091520A5091C2
:1058F000530A60E074E284EF90E00E944E39DA01CE
:10590000C9014097A109B109B695A79597958795C3
:105910008093B80015C08091340A9091350A892B84
:1059200029F080914E0A90914F0AF5DCE091480AE7
:10593000F091490A908180914D0A80958923808356
:1059400065E084E79BE317DF60911D0A615089E100
:105950009AE07BDE20911F0A3091200AC901079648
:1059600097FD079633E0959587953A95E1F7209155
:105970001D0A30911E0A829F8001839F100D929F05
:10598000100D1124C091380AD091390A8091360A3D
:105990009091370A0C0F1D1F009709F441C06091C8
:1059A0003A0A49DE8091360A9091370ADC01ED917E
:1059B000FC910190F081E02D60E419957E01D1E029
:1059C0008091360A9091370A0E151F0539F1D032B1
:1059D000A8F0D5DD60913A0A8091360A9091370A95
:1059E0002ADE8091360A9091370ADC01ED91FC9114
:1059F0000190F081E02D60E41995D1E08091360AA4
:105A00009091370AF70161917F01DC01ED91FC91E2
:105A10000190F081E02D1995DF5FD2CFB0DD40C05D
:105A2000E091460AF091470A908180914C0A892BB7
:105A30008083C017D107A1F189912091340A309158
:105A4000350A232B11F060DCF4CF28E030E040E889
:105A5000E091420AF091430A90914A0A582F542348
:105A600019F05081952B03C0508190959523908318
:105A7000E091440AF091450A508190914B0A952B90
:105A80009083E091440AF091450A508190914B0A2D
:105A9000909595239083469521503109C9F6C9CF39
:105AA0008091360A9091370A892BD1F02091540ABF
:105AB0003091550A4091560A5091570A60E074E2BD
:105AC00084EF90E00E944E39DA01C9014097A109A4
:105AD000B109B695A795979587958093B80016C09C
